{
  "contractName": "MinterRole",
  "abi": [
    {
      "inputs": [],
      "stateMutability": "nonpayable",
      "type": "constructor"
    },
    {
      "anonymous": false,
      "inputs": [
        {
          "indexed": true,
          "internalType": "address",
          "name": "account",
          "type": "address"
        }
      ],
      "name": "MinterAdded",
      "type": "event"
    },
    {
      "anonymous": false,
      "inputs": [
        {
          "indexed": true,
          "internalType": "address",
          "name": "account",
          "type": "address"
        }
      ],
      "name": "MinterRemoved",
      "type": "event"
    },
    {
      "inputs": [
        {
          "internalType": "address",
          "name": "account",
          "type": "address"
        }
      ],
      "name": "isMinter",
      "outputs": [
        {
          "internalType": "bool",
          "name": "",
          "type": "bool"
        }
      ],
      "stateMutability": "view",
      "type": "function"
    },
    {
      "inputs": [
        {
          "internalType": "address",
          "name": "account",
          "type": "address"
        }
      ],
      "name": "addMinter",
      "outputs": [],
      "stateMutability": "nonpayable",
      "type": "function"
    },
    {
      "inputs": [],
      "name": "renounceMinter",
      "outputs": [],
      "stateMutability": "nonpayable",
      "type": "function"
    }
  ],
  "bytecode": "0x608060405234801561001057600080fd5b5061002d61002261003260201b60201c565b61003a60201b60201c565b610305565b600033905090565b61005281600061009860201b6101751790919060201c565b8073ffffffffffffffffffffffffffffffffffffffff167f6ae172837ea30b801fbfcdd4108aa1d5bf8ff775444fd70256b44e6bf3dfc3f660405160405180910390a250565b6100a8828261014660201b60201c565b156100e8576040517f08c379a00000000000000000000000000000000000000000000000000000000081526004016100df906102b4565b60405180910390fd5b60018260000160008373ffffffffffffffffffffffffffffffffffffffff1673ffffffffffffffffffffffffffffffffffffffff16815260200190815260200160002060006101000a81548160ff0219169083151502179055505050565b60008073ffffffffffffffffffffffffffffffffffffffff168273ffffffffffffffffffffffffffffffffffffffff1614156101b7576040517f08c379a00000000000000000000000000000000000000000000000000000000081526004016101ae906102d4565b60405180910390fd5b8260000160008373ffffffffffffffffffffffffffffffffffffffff1673ffffffffffffffffffffffffffffffffffffffff16815260200190815260200160002060009054906101000a900460ff16905092915050565b600061021b601f836102f4565b91507f526f6c65733a206163636f756e7420616c72656164792068617320726f6c65006000830152602082019050919050565b600061025b6022836102f4565b91507f526f6c65733a206163636f756e7420697320746865207a65726f20616464726560008301527f73730000000000000000000000000000000000000000000000000000000000006020830152604082019050919050565b600060208201905081810360008301526102cd8161020e565b9050919050565b600060208201905081810360008301526102ed8161024e565b9050919050565b600082825260208201905092915050565b61078d806103146000396000f3fe608060405234801561001057600080fd5b50600436106100415760003560e01c8063983b2d56146100465780639865027514610062578063aa271e1a1461006c575b600080fd5b610060600480360381019061005b91906104ac565b61009c565b005b61006a6100f7565b005b610086600480360381019061008191906104ac565b610158565b6040516100939190610656565b60405180910390f35b6100ac6100a761021d565b610158565b6100eb576040517f08c379a00000000000000000000000000000000000000000000000000000000081526004016100e290610691565b60405180910390fd5b6100f481610225565b50565b61010761010261021d565b610158565b610146576040517f08c379a000000000000000000000000000000000000000000000000000000000815260040161013d90610691565b60405180910390fd5b61015661015161021d565b61027f565b565b600061016e82600061032890919063ffffffff16565b9050919050565b61017f8282610328565b156101bf576040517f08c379a00000000000000000000000000000000000000000000000000000000081526004016101b690610671565b60405180910390fd5b60018260000160008373ffffffffffffffffffffffffffffffffffffffff1673ffffffffffffffffffffffffffffffffffffffff16815260200190815260200160002060006101000a81548160ff0219169083151502179055505050565b600033905090565b61023981600061017590919063ffffffff16565b8073ffffffffffffffffffffffffffffffffffffffff167f6ae172837ea30b801fbfcdd4108aa1d5bf8ff775444fd70256b44e6bf3dfc3f660405160405180910390a250565b61028f61028a61021d565b610158565b6102ce576040517f08c379a00000000000000000000000000000000000000000000000000000000081526004016102c590610691565b60405180910390fd5b6102e28160006103f090919063ffffffff16565b8073ffffffffffffffffffffffffffffffffffffffff167fe94479a9f7e1952cc78f2d6baab678adc1b772d936c6583def489e524cb6669260405160405180910390a250565b60008073ffffffffffffffffffffffffffffffffffffffff168273ffffffffffffffffffffffffffffffffffffffff161415610399576040517f08c379a0000000000000000000000000000000000000000000000000000000008152600401610390906106d1565b60405180910390fd5b8260000160008373ffffffffffffffffffffffffffffffffffffffff1673ffffffffffffffffffffffffffffffffffffffff16815260200190815260200160002060009054906101000a900460ff16905092915050565b6103fa8282610328565b610439576040517f08c379a0000000000000000000000000000000000000000000000000000000008152600401610430906106b1565b60405180910390fd5b60008260000160008373ffffffffffffffffffffffffffffffffffffffff1673ffffffffffffffffffffffffffffffffffffffff16815260200190815260200160002060006101000a81548160ff0219169083151502179055505050565b6000813590506104a681610740565b92915050565b6000602082840312156104be57600080fd5b60006104cc84828501610497565b91505092915050565b6104de81610714565b82525050565b60006104f1601f836106f1565b91507f526f6c65733a206163636f756e7420616c72656164792068617320726f6c65006000830152602082019050919050565b60006105316030836106f1565b91507f4d696e746572526f6c653a2063616c6c657220646f6573206e6f74206861766560008301527f20746865204d696e74657220726f6c65000000000000000000000000000000006020830152604082019050919050565b60006105976021836106f1565b91507f526f6c65733a206163636f756e7420646f6573206e6f74206861766520726f6c60008301527f65000000000000000000000000000000000000000000000000000000000000006020830152604082019050919050565b60006105fd6022836106f1565b91507f526f6c65733a206163636f756e7420697320746865207a65726f20616464726560008301527f73730000000000000000000000000000000000000000000000000000000000006020830152604082019050919050565b600060208201905061066b60008301846104d5565b92915050565b6000602082019050818103600083015261068a816104e4565b9050919050565b600060208201905081810360008301526106aa81610524565b9050919050565b600060208201905081810360008301526106ca8161058a565b9050919050565b600060208201905081810360008301526106ea816105f0565b9050919050565b600082825260208201905092915050565b600061070d82610720565b9050919050565b60008115159050919050565b600073ffffffffffffffffffffffffffffffffffffffff82169050919050565b61074981610702565b811461075457600080fd5b5056fea2646970667358221220fc05d46b7ff0da4740b783e9e3ff3e8d0736aba4afacff2231499ac47558463f64736f6c63430008000033",
  "immutableReferences": {},
  "source": "// SPDX-License-Identifier: MIT\n\npragma solidity ^0.8.0;\n\nimport \"@openzeppelin/contracts/utils/Context.sol\";\nimport \"./Roles.sol\";\n\ncontract MinterRole is Context {\n    using Roles for Roles.Role;\n\n    event MinterAdded(address indexed account);\n    event MinterRemoved(address indexed account);\n\n    Roles.Role private _minters;\n\n    constructor () {\n        _addMinter(_msgSender());\n    }\n\n    modifier onlyMinter() {\n        require(isMinter(_msgSender()), \"MinterRole: caller does not have the Minter role\");\n        _;\n    }\n\n    function isMinter(address account) public view returns (bool) {\n        return _minters.has(account);\n    }\n\n    function addMinter(address account) public onlyMinter {\n        _addMinter(account);\n    }\n\n    function renounceMinter() public onlyMinter {\n        _removeMinter(_msgSender());\n    }\n\n    function _addMinter(address account) internal {\n        _minters.add(account);\n        emit MinterAdded(account);\n    }\n\n    function _removeMinter(address account) internal onlyMinter {\n        _minters.remove(account);\n        emit MinterRemoved(account);\n    }\n}",
  "sourcePath": "/Users/giacomomellone/Projects/Solidity/Tokenization/contracts/MinterRole.sol",
  "compiler": {
    "name": "solc",
    "version": "0.8.0+commit.c7dfd78e.Emscripten.clang"
  },
  "schemaVersion": "3.4.7",
  "updatedAt": "2022-05-18T07:43:44.829Z",
  "devdoc": {
    "kind": "dev",
    "methods": {},
    "version": 1
  },
  "userdoc": {
    "kind": "user",
    "methods": {},
    "version": 1
  }
}